:10000000C0010120F1020000ED020000ED0200003D
:10001000ED020000ED020000ED0200000000000013
:10002000000000000000000000000000ED020000E1
:10003000ED02000000000000ED0200005908000081
:10004000ED020000ED020000ED020000ED020000F4
:10005000ED020000ED020000ED020000ED020000E4
:10006000ED020000ED020000ED020000ED020000D4
:10007000ED020000ED020000ED020000ED020000C4
:10008000ED020000ED020000ED020000ED020000B4
:10009000ED020000ED020000ED020000ED020000A4
:1000A000ED020000ED020000ED0200006908000012
:1000B000ED020000ED020000ED020000ED02000084
:1000C000ED020000ED020000ED020000ED02000074
:1000D000ED020000ED020000ED020000ED02000064
:1000E000ED020000ED020000000000000000000032
:1000F00000000000ED020000ED020000ED02000033
:10010000ED020000ED020000ED020000ED02000033
:10011000ED020000ED020000ED020000ED02000023
:10012000ED020000ED020000ED020000ED02000013
:10013000ED020000ED020000ED020000ED02000003
:10014000ED020000ED020000ED020000ED020000F3
:10015000ED020000ED0200000000000000000000C1
:10016000000000000000000000000000000000008F
:100170000000000000000000ED020000ED020000A1
:10018000ED020000ED020000ED020000ED020000B3
:1001900000000000ED020000ED020000ED02000092
:1001A000ED020000ED020000ED020000ED02000093
:1001B000ED020000ED020000ED020000ED02000083
:1001C000ED020000ED020000ED020000ED02000073
:1001D000ED020000ED020000ED020000ED02000063
:1001E000ED020000ED020000ED020000ED02000053
:1001F000ED020000ED020000ED020000ED02000043
:10020000ED0200000000000000000000ED02000010
:10021000ED020000ED020000ED020000ED02000022
:10022000ED020000ED020000ED020000ED02000012
:10023000ED020000ED020000ED020000ED02000002
:10024000ED020000ED020000ED020000ED020000F2
:10025000ED020000ED020000ED020000ED020000E2
:100260000348044B834202D0034B03B11847704745
:10027000900A0000900A0000000000000548064BAC
:100280001B1AD90F01EBA301491002D0034B03B194
:1002900018477047900A0000900A00000000000014
:1002A00010B5064C237843B9FFF7DAFF044B13B1BE
:1002B0000448AFF300800123237010BD0400002028
:1002C00000000000900A000008B5054B1BB105496D
:1002D0000548AFF30080BDE80840FFF7CFBF00BF7F
:1002E0000000000008000020900A0000FEE7000067
:1002F00008B51A4A1A4B9A4210D01A46194B9A421C
:100300000CD2581E801A20F003000430134B1844FE
:1003100053F8041B42F8041B8342F9D1124A134BD1
:100320009A420BD21346124AD21A22F00302043226
:100330001A44002143F8041B9A42FBD10D4B23F0D1
:100340007F030D4A93600D4B03B1984700F0E6FA26
:100350000B4B03B1984700F095FAFEE7900A0000B6
:10036000000000200400002004000020BC01002048
:10037000BB0100200000000000ED00E000000000D4
:10038000000000000B4BD3F8F03013F0010F0FD03A
:100390000421084AB2F8F83013F0010FFAD1030231
:1003A00043F001039BB2A2F8F830000A0139F1D101
:1003B000704700BF00ED00E038B505460C4640F23E
:1003C000014040EA0140FFF7DDFF002C05DD55F854
:1003D000040BFFF7D7FF013CF9D138BD70B50378A6
:1003E000ABB3054603460024013413F8012F32B1A4
:1003F000B4F5803FF8D10120FFF7C4FF06E02004E8
:1004000040F00100FFF7BEFF002C1FDD0435002681
:10041000284615F8043C012CC6BF15F8032C12021F
:1004200032461343022CC6BF15F8022C1204324682
:100430001343032CC6BF15F8010C000630461843C1
:10044000FFF7A0FF0435043C002CE1DC70BD012067
:10045000FFF798FFFAE70000044B4FF000621A60C4
:10046000034A536943F480635361704700E100E03D
:10047000000800400B4B1A6A42F010421A621A6BD5
:1004800042F400421A635A6B42F4803242F0D002C6
:100490005A631A6942F400421A611A7842F0120251
:1004A0001A707047002800400B4B4FF40041596010
:1004B00093F84F2042F0010283F84F2093F8372041
:1004C000D2B283F83720996193F84F2042F00402AA
:1004D00083F84F20704700BF00800041084AD2F8DF
:1004E000EC3043F04003C2F8EC30D2F8EC3013F0BB
:1004F000400FFAD0034A136943F400331361704785
:10050000001C0040000800404FF0844301229A6123
:100510009A6170470C4B93F8562042F0010283F821
:10052000562093F83B2042F0080283F83B2093F8D2
:10053000572042F0010283F8572093F83B2042F005
:10054000800283F83B20704700800041084AD2F8BF
:10055000DC3043F04003C2F8DC30D2F8DC3013F07A
:10056000400FFAD0034A936943F4007393617047D4
:10057000001C004000080040114B01221A601A467E
:10058000D369002BFCD10E4B4FF480725A601A468F
:10059000D369002BFCD10A4B4FF48072DA60094A10
:1005A0001A601A46D369002BFCD1054B10225A83DE
:1005B0001A46D369002BFCD1014B83229A757047F0
:1005C00000200141160000080C4B93F84C2042F02B
:1005D000010283F84C2093F8362042F0020283F89F
:1005E000362093F84D2042F0010283F84D2093F815
:1005F000362042F0200283F8362070470080004108
:1006000082B04000019061B1019B43F0010301936E
:10061000019A054B5A621A46D369002BFCD102B0ED
:100620007047019B0193F3E70020014110B5044698
:100630000B4A536823F48023536000216B20FFF79B
:10064000DFFF074AD369002BFCD1054A137E002B3C
:10065000FCD0034B9C621A46D369002BFCD110BD21
:100660000020014130B583B00C46154600230193AC
:100670000123FFF7DBFF01216B20FFF7C1FF134AC6
:10068000137E002BFCD0019B9C4210D90F4B187E8F
:100690000028FCD0D8690028FCD1986A019AC0B221
:1006A000A854019801300190019AA242EFD3019B16
:1006B000A34201D003B030BD044A536843F4E023A1
:1006C0005360D369002BFCD1F4E700BF0020014147
:1006D00038B50D4614460023FFF7A8FF5DB120464C
:1006E0006119094A137E002BFCD010F8013BDBB2E4
:1006F00093628842F6D1044A536843F4403353600E
:10070000D369002BFCD138BD0020014100B591B068
:100710000423ADF800306A4601212220FFF7D8FFFC
:10072000074A137E002BFCD04023ADF800306A4608
:1007300001212020FFF7CCFF11B05DF804FB00BFC2
:100740000020014100B5ADF57B7D6A460621A82059
:10075000FFF788FF0DF57B7D5DF804FB08B5064BC0
:100760004FF480429A609A61FFF79EFEFFF72CFFDC
:10077000FFF7D0FE08BD00BF0080004108B5FFF7BD
:100780006BFEFFF7E3FEFFF7A9FE08BD244B254AE9
:100790009A621A46536813F0100FFBD1204B422285
:1007A000C3F884201A46D2F8843013F0400FFAD0F0
:1007B0001D4B00229A6377225A631A46D36B13F0BB
:1007C000040FFBD1184B022283F830201A46D36B5A
:1007D00013F0020FFBD1144A136C03F00303032B35
:1007E000FAD1124B01225A711A46D37813F0010F35
:1007F000FBD00B4B40F207121A621A46536813F0F3
:10080000040FFBD14FF0E023094A5A61094AE02165
:1008100082F8231000229A6107221A61704700BFF4
:10082000001C00400601300000100040000800409D
:10083000BFD4010000ED00E008B5FFF7A7FFFFF708
:100840009DFFFFF78BFFFFF797FEFFF713FEFFF704
:100850005BFEFFF75BFF08BD024A136801331360BC
:10086000704700BF20000020044B4FF48042DA6143
:10087000034A536943F400435361704700800041C9
:100880000028004070B5194B013BFDD1184BDB68C7
:1008900013F0010F02D1164B01229A60154A5378CA
:1008A00043F002035370FFF7C7FF62B61248FFF729
:1008B00095FD124B4FF48042DA61114C114D1E46EA
:1008C00008E04FF48043F36101212046FFF774FDF7
:1008D000FFF738FF30BF2368A5FB03121209FA2186
:1008E00001FB1233002BECD02368F3E780969800CD
:1008F0000060004100040040540A000000800041F4
:1009000020000020D34D6210024B13B1024800F0CA
:1009100045B87047000000006D09000070B50F4B2E
:100920000F4DAB42A3EB050607D0B610002455F8D7
:10093000043B01349847A642F9D800F097F8094DD6
:10094000094B5E1BAB424FEAA60606D0002455F8C1
:10095000043B01349847A642F9D870BD780A0000DC
:10096000780A0000780A0000800A000038B5074DB8
:10097000074C2C1BA41005D0013C55F8043D9847AA
:10098000002CF9D1BDE8384000F07AB8900A000098
:100990008C0A0000704700BF704700BF002301466B
:1009A0001A46184600F000B82DE9F8431B4D0646DC
:1009B000286898460F469146FFF7ECFF184B1C68D5
:1009C0001CB3286865681F2D22DC4EB96B1C0235EC
:1009D000636044F82570FFF7DFFF0020BDE8F8836F
:1009E00004EB85010123C1F88890D4F88821AB403D
:1009F0001A43022EC4F88821C1F80881E6D1D4F840
:100A00008C211A43C4F88C21E0E7064C1C60D8E71F
:100A1000FFF7C2FF4FF0FF30E0E700BF000000200B
:100A2000240000202C000020417373657274696FEC
:100A30006E20270027206661696C656420696E203E
:100A4000000000006265666F72656500616674652E
:100A5000727200007E7E7E444542554720454E41DD
:100A6000424C45447E7E7E0A00000000F8B500BF7F
:100A7000F8BC08BC9E46704709090000C902000086
:100A8000F8B500BFF8BC08BC9E467047A102000044
:040A9000280000201A
:00000001FF
