:10000000C0010120F1020000ED020000ED0200003D
:10001000ED020000ED020000ED0200000000000013
:10002000000000000000000000000000ED020000E1
:10003000ED02000000000000ED02000029060000B3
:10004000ED020000ED020000ED020000ED020000F4
:10005000ED020000ED020000ED020000ED020000E4
:10006000ED020000ED020000ED020000ED020000D4
:10007000ED020000ED020000ED020000ED020000C4
:10008000ED020000ED020000ED020000ED020000B4
:10009000ED020000ED020000ED020000ED020000A4
:1000A000ED020000ED020000ED0200003906000044
:1000B000ED020000ED020000ED020000ED02000084
:1000C000ED020000ED020000ED020000ED02000074
:1000D000ED020000ED020000ED020000ED02000064
:1000E000ED020000ED020000000000000000000032
:1000F00000000000ED020000ED020000ED02000033
:10010000ED020000ED020000ED020000ED02000033
:10011000ED020000ED020000ED020000ED02000023
:10012000ED020000ED020000ED020000ED02000013
:10013000ED020000ED020000ED020000ED02000003
:10014000ED020000ED020000ED020000ED020000F3
:10015000ED020000ED0200000000000000000000C1
:10016000000000000000000000000000000000008F
:100170000000000000000000ED020000ED020000A1
:10018000ED020000ED020000ED020000ED020000B3
:1001900000000000ED020000ED020000ED02000092
:1001A000ED020000ED020000ED020000ED02000093
:1001B000ED020000ED020000ED020000ED02000083
:1001C000ED020000ED020000ED020000ED02000073
:1001D000ED020000ED020000ED020000ED02000063
:1001E000ED020000ED020000ED020000ED02000053
:1001F000ED020000ED020000ED020000ED02000043
:10020000ED0200000000000000000000ED02000010
:10021000ED020000ED020000ED020000ED02000022
:10022000ED020000ED020000ED020000ED02000012
:10023000ED020000ED020000ED020000ED02000002
:10024000ED020000ED020000ED020000ED020000F2
:10025000ED020000ED020000ED020000ED020000E2
:100260000348044B834202D0034B03B11847704745
:10027000A8080000A8080000000000000548064B80
:100280001B1AD90F01EBA301491002D0034B03B194
:1002900018477047A8080000A808000000000000E8
:1002A00010B5064C237843B9FFF7DAFF044B13B1BE
:1002B0000448AFF300800123237010BD0400002028
:1002C00000000000A808000008B5054B1BB1054957
:1002D0000548AFF30080BDE80840FFF7CFBF00BF7F
:1002E0000000000008000020A8080000FEE7000051
:1002F00008B51A4A1A4B9A4210D01A46194B9A421C
:100300000CD2581E801A20F003000430134B1844FE
:1003100053F8041B42F8041B8342F9D1124A134BD1
:100320009A420BD21346124AD21A22F00302043226
:100330001A44002143F8041B9A42FBD10D4B23F0D1
:100340007F030D4A93600D4B03B1984700F0E8F925
:100350000B4B03B1984700F077F9FEE7A8080000BF
:10036000000000200400002004000020BC01002048
:10037000BB0100200000000000ED00E000000000D4
:10038000000000000B4BD3F8F03013F0010F0FD03A
:100390000421084AB2F8F83013F0010FFAD1030231
:1003A00043F001039BB2A2F8F830000A0139F1D101
:1003B000704700BF00ED00E038B505460C4640F23E
:1003C000014040EA0140FFF7DDFF002C05DD55F854
:1003D000040BFFF7D7FF013CF9D138BDF8B505464E
:1003E0000C4640F2012040EA0140FFF7CBFF002C11
:1003F00015DD0435A61E631E23F00103F61A00273F
:1004000035F8040C012CC6BF35F8023C1B043B46F2
:100410001843FFF7B7FF023C0435B442F0D1F8BDF2
:1004200070B505460C4640F2011040EA0140FFF766
:10043000A9FF002C1FDD04350026284615F8043CD2
:10044000012CC6BF15F8032C120232461343022CAE
:10045000C6BF15F8022C120432461343032CC6BF44
:1004600015F8010C000630461843FFF78BFF0435E2
:10047000043C002CE1DC70BD70B50378ABB30546DD
:1004800003460024013413F8012F32B1B4F5803F44
:10049000F8D10120FFF776FF06E0200440F00100CC
:1004A000FFF770FF002C1FDD04350026284615F8E5
:1004B000043C012CC6BF15F8032C1202324613432C
:1004C000022CC6BF15F8022C120432461343032C2B
:1004D000C6BF15F8010C000630461843FFF752FF5F
:1004E0000435043C002CE1DC70BD0120FFF74AFF1D
:1004F000FAE708B5000440F00200FFF743FF08BD2B
:10050000244B254A9A621A46536813F0100FFBD108
:10051000204B4222C3F884201A46D2F8843013F0CC
:10052000400FFAD01D4B00229A6377225A631A4675
:10053000D36B13F0040FFBD1184B022283F8302049
:100540001A46D36B13F0020FFBD1144A136C03F05D
:100550000303032BFAD1124B01225A711A46D378A6
:1005600013F0010FFBD00B4B40F207121A621A4630
:10057000536813F0040FFBD14FF0E023094A5A618E
:10058000094AE02182F8231000229A6107221A61A9
:10059000704700BF001C0040060130000010004002
:1005A00000080040BFD4010000ED00E01A4B4FF4FA
:1005B0000041596093F84F2042F0010283F84F2028
:1005C00093F83720D2B283F83720996193F84F20FF
:1005D00042F0040283F84F20104B4FF000621A6083
:1005E0000F4A536943F4806353610E4B1A6A42F019
:1005F00010421A621A6B0A431A635A6B42F4803231
:1006000042F0D0025A631A690A431A611A7842F01A
:1006100012021A70704700BF0080004100E100E044
:100620000008004000280040024A136801331360AC
:10063000704700BF20000020024A536943F4004382
:10064000536170470028004070B582B0264B013BD3
:10065000FDD1264B4FF480429A609A61A3F5005376
:10066000DB6813F0010F02D1214B01229A60214A6D
:10067000537843F002035370FFF742FFFFF796FFF2
:1006800062B61D48FFF7F8FE7420FFF732FF6520C1
:10069000FFF72FFF7320FFF72CFF7420FFF729FFD0
:1006A0000A20FFF726FF154B0193012101A8FFF750
:1006B00083FE134C08212046FFF790FE102160189E
:1006C000FFF7AEFE0F4E1048FA21084D4FF480445C
:1006D00000E0EC6130BF3368A0FB03E2120901FBCC
:1006E0001233002BF6D1F4E7A08601000080004110
:1006F00000600041000400405808000067452301E5
:100700006408000020000020D34D6210024B13B19A
:10071000024800F045B87047000000007107000073
:1007200070B50F4B0F4DAB42A3EB050607D0B610CB
:10073000002455F8043B01349847A642F9D800F04C
:10074000A1F8094D094B5E1BAB424FEAA60606D045
:10075000002455F8043B01349847A642F9D870BDEF
:100760009008000090080000900800009808000021
:1007700038B5074D074C2C1BA41005D0013C55F88B
:10078000043D9847002CF9D1BDE8384000F084B80A
:10079000A8080000A4080000704700BF704700BF11
:1007A000002301461A46184600F000B82DE9F84328
:1007B0001B4D0646286898460F469146FFF7ECFF0A
:1007C000184B1C681CB3286865681F2D22DC4EB9C5
:1007D0006B1C0235636044F82570FFF7DFFF0020D3
:1007E000BDE8F88304EB85010123C1F88890D4F8B3
:1007F0008821AB401A43022EC4F88821C1F8088131
:10080000E6D1D4F88C211A43C4F88C21E0E7064CD9
:100810001C60D8E7FFF7C2FF4FF0FF30E0E700BFF2
:1008200000000020240000202C000020417373658C
:100830007274696F6E20270027206661696C656499
:1008400020696E20000000006265666F72656500B9
:10085000616674657272000068656C6C6F20776FFA
:10086000726C640023016745AB89EFCD23016745B6
:10087000AB89EFCD00112233445566778899AABB26
:10088000CCDDEEFFF8B500BFF8BC08BC9E46704753
:100890000D070000C9020000F8B500BFF8BC08BC95
:0808A0009E467047A102000012
:0408A8002800002004
:00000001FF
