:10000000C0010120F1020000ED020000ED0200003D
:10001000ED020000ED020000ED0200000000000013
:10002000000000000000000000000000ED020000E1
:10003000ED02000000000000ED020000610700007A
:10004000ED020000ED020000ED020000ED020000F4
:10005000ED020000ED020000ED020000ED020000E4
:10006000ED020000ED020000ED020000ED020000D4
:10007000ED020000ED020000ED020000ED020000C4
:10008000ED020000ED020000ED020000ED020000B4
:10009000ED020000ED020000ED020000ED020000A4
:1000A000ED020000ED020000ED020000710700000B
:1000B000ED020000ED020000ED020000ED02000084
:1000C000ED020000ED020000ED020000ED02000074
:1000D000ED020000ED020000ED020000ED02000064
:1000E000ED020000ED020000000000000000000032
:1000F00000000000ED020000ED020000ED02000033
:10010000ED020000ED020000ED020000ED02000033
:10011000ED020000ED020000ED020000ED02000023
:10012000ED020000ED020000ED020000ED02000013
:10013000ED020000ED020000ED020000ED02000003
:10014000ED020000ED020000ED020000ED020000F3
:10015000ED020000ED0200000000000000000000C1
:10016000000000000000000000000000000000008F
:100170000000000000000000ED020000ED020000A1
:10018000ED020000ED020000ED020000ED020000B3
:1001900000000000ED020000ED020000ED02000092
:1001A000ED020000ED020000ED020000ED02000093
:1001B000ED020000ED020000ED020000ED02000083
:1001C000ED020000ED020000ED020000ED02000073
:1001D000ED020000ED020000ED020000ED02000063
:1001E000ED020000ED020000ED020000ED02000053
:1001F000ED020000ED020000ED020000ED02000043
:10020000ED0200000000000000000000ED02000010
:10021000ED020000ED020000ED020000ED02000022
:10022000ED020000ED020000ED020000ED02000012
:10023000ED020000ED020000ED020000ED02000002
:10024000ED020000ED020000ED020000ED020000F2
:10025000ED020000ED020000ED020000ED020000E2
:100260000348044B834202D0034B03B11847704745
:10027000E0090000E0090000000000000548064B0E
:100280001B1AD90F01EBA301491002D0034B03B194
:1002900018477047E0090000E00900000000000076
:1002A00010B5064C237843B9FFF7DAFF044B13B1BE
:1002B0000448AFF300800123237010BD0400002028
:1002C00000000000E009000008B5054B1BB105491E
:1002D0000548AFF30080BDE80840FFF7CFBF00BF7F
:1002E0000000000008000020E0090000FEE7000018
:1002F00008B51A4A1A4B9A4210D01A46194B9A421C
:100300000CD2581E801A20F003000430134B1844FE
:1003100053F8041B42F8041B8342F9D1124A134BD1
:100320009A420BD21346124AD21A22F00302043226
:100330001A44002143F8041B9A42FBD10D4B23F0D1
:100340007F030D4A93600D4B03B1984700F08EFA7E
:100350000B4B03B1984700F019FAFEE7E0090000E3
:10036000000000200400002004000020C001002044
:10037000BF0100200000000000ED00E000000000D0
:10038000000000000B4BD3F8F03013F0010F0FD03A
:100390000421084AB2F8F83013F0010FFAD1030231
:1003A00043F001039BB2A2F8F830000A0139F1D101
:1003B000704700BF00ED00E070B505460C4640F206
:1003C000011040EA0140FFF7DDFF002C1FDD04357E
:1003D0000026284615F8043C012CC6BF15F8032C4E
:1003E000120232461343022CC6BF15F8022C120427
:1003F00032461343032CC6BF15F8010C00063046E5
:100400001843FFF7BFFF0435043C002CE1DC70BD4E
:1004100070B50378ABB3054603460024013413F8E6
:10042000012F32B1B4F5803FF8D10120FFF7AAFFC8
:1004300006E0200440F00100FFF7A4FF002C1FDDC0
:1004400004350026284615F8043C012CC6BF15F8D3
:10045000032C120232461343022CC6BF15F8022C9D
:10046000120432461343032CC6BF15F8010C0006D4
:1004700030461843FFF786FF0435043C002CE1DCCE
:1004800070BD0120FFF77EFFFAE70000044B4FF03C
:1004900000621A60034A536943F4806353617047F2
:1004A00000E100E0000800400B4B1A6A42F01042E5
:1004B0001A621A6B42F400421A635A6B42F4803299
:1004C00042F0D0025A631A6942F400421A611A7863
:1004D00042F012021A707047002800400B4B4FF494
:1004E0000041596093F84F2042F0010283F84F20F9
:1004F00093F83720D2B283F83720996193F84F20D0
:1005000042F0040283F84F20704700BF0080004192
:100510000F4B104A1A634422C3F89C201A46D2F8A3
:100520009C3013F0400FFAD0094B4422C3F8082145
:100530001A46D2F8083113F0400FFAD0064B5A6928
:1005400042F480525A611A6A42F001021A627047FC
:10055000001C00400601030000080040174B002269
:100560001A604FF086410A604FF440325A601A46D2
:10057000D36913F0040FFBD14FF086434FF44032A0
:100580005A601A46D36913F0040FFBD10B4B0022BB
:100590009A814FF086418A81094A1A601A46D369C6
:1005A00013F0020FFBD14FF08643054A1A601A463A
:1005B000D36913F0020FFBD1704700BF0030004039
:1005C00006001040214B93F8482042F0010283F8C6
:1005D000482093F8342042F0020283F8342093F844
:1005E000492042F0010283F8492093F8342042F078
:1005F000200283F8342093F8CC2042F0010283F8E3
:10060000CC2093F8B62042F0020283F8B62093F88B
:10061000CD2042F0010283F8CD2093F8B62042F0BD
:10062000200283F8B62010229A609A614FF480224B
:100630009A609A612022C3F88820C3F898204FF46A
:100640008042C3F88820C3F898207047008000419A
:10065000084B984203D0B0F1864F06D07047064B46
:1006600044F22002C3F894207047034B034A5A61B6
:10067000F4E700BF0030004000800041100004009B
:10068000084B984203D0B0F1864F06D07047064B16
:1006900044F22002C3F898207047034B034A9A6142
:1006A000F4E700BF0030004000800041100004006B
:1006B00038B504460D46FFF7E3FF237E13F0010F24
:1006C000FBD0A56238BD10B50446FFF7C1FFA06A94
:1006D000C0B210BD08B5054B4FF480429A609A61D4
:1006E000FFF7FCFEFFF76EFF08BD00BF0080004172
:1006F00008B5FFF7CBFEFFF70BFF08BD0E4B01223D
:100700005A711A46D37813F0010FFBD00B4B0C4AE9
:100710001A621A46536813F0040FFBD14FF0E0231E
:1007200040F2CF725A61074AE02182F8231000227A
:100730009A6107221A61704700080040001C0040BF
:100740000601180000ED00E008B5FFF7D7FFFFF73E
:10075000CFFFFFF7BFFFFFF7A7FEFFF7FFFE08BDC4
:10076000024A136801331360704700BF2000002065
:10077000044B4FF48042DA61034A536943F4004367
:1007800053617047008000410028004070B582B07E
:10079000294B013BFDD1294BDB6813F0010F02D13E
:1007A000264B01229A60264A537843F00203537085
:1007B000FFF7CAFF62B62348FFF72AFE224B4FF429
:1007C0008042DA61214C224D224E18E03046FFF77C
:1007D0003FFF6368013363601B4B4FF48042DA6173
:1007E0004FF08640FFF734FF4FF08640FFF76BFF76
:1007F0008DF8070001210DF10700FFF7DDFD4FF433
:100800007A7130BF2368A5FB0302920901FB123302
:10081000002BF6D16168C9B23046FFF749FF0122CB
:100820004FF4FA610132A5FB0203DB0901FB13233C
:10083000002BF7D1CAE700BF809698000060004106
:1008400000040040A40900000080004120000020B6
:10085000D34D621000300040024B13B1024800F04B
:1008600045B8704700000000BD08000070B50F4B90
:100870000F4DAB42A3EB050607D0B610002455F888
:10088000043B01349847A642F9D800F097F8094D87
:10089000094B5E1BAB424FEAA60606D0002455F872
:1008A000043B01349847A642F9D870BDC80900003E
:1008B000C8090000C8090000D009000038B5074D7C
:1008C000074C2C1BA41005D0013C55F8043D98475B
:1008D000002CF9D1BDE8384000F07AB8E0090000FA
:1008E000DC090000704700BF704700BF00230146CD
:1008F0001A46184600F000B82DE9F8431B4D06468D
:10090000286898460F469146FFF7ECFF184B1C6885
:100910001CB3286865681F2D22DC4EB96B1C02359C
:10092000636044F82570FFF7DFFF0020BDE8F8831F
:1009300004EB85010123C1F88890D4F88821AB40ED
:100940001A43022EC4F88821C1F80881E6D1D4F8F0
:100950008C211A43C4F88C21E0E7064C1C60D8E7D0
:10096000FFF7C2FF4FF0FF30E0E700BF00000020BC
:100970002800002030000020417373657274696F95
:100980006E20270027206661696C656420696E20EF
:10099000000000006265666F7265650061667465DF
:1009A000727200007E7E7E444542554720454E418E
:1009B000424C45447E7E7E0A00000000F8B500BF30
:1009C000F8BC08BC9E46704759080000C9020000E8
:1009D000F8B500BFF8BC08BC9E467047A1020000F5
:0409E0002C000020C7
:00000001FF
